:1000000000000420450E0000410E0000410E0000DB
:10001000410E0000410E0000410E000000000000F3
:10002000000000000000000000000000410E000081
:10003000410E000000000000410E0000410E0000D3
:10004000410E0000410E0000410E0000410E000074
:10005000410E0000410E0000410E0000410E000064
:10006000410E0000410E0000410E0000410E000054
:10007000410E0000410E0000410E0000410E000044
:10008000010D0000410E0000410E0000790D00003E
:10009000410E0000410E0000410E0000410E000024
:1000A000410E0000410E0000410E0000410E000014
:1000B000410E0000410E0000410E0000410E000004
:1000C000410E0000410E0000410E0000410E0000F4
:1000D000410E0000410E0000410E0000410E0000E4
:1000E000410E0000410E0000410E0000410E0000D4
:1000F000410E0000410E0000410E0000410E0000C4
:10010000410E0000410E0000410E0000410E0000B3
:10011000410E0000410E0000410E0000410E0000A3
:10012000410E0000410E0000410E0000410E000093
:10013000410E0000410E0000410E0000410E000083
:10014000410E0000410E0000410E0000410E000073
:100150000000000000000000410E0000410E000001
:10016000410E0000410E000000000000410E0000A2
:10017000410E0000410E0000410E0000410E000043
:10018000410E0000410E0000410E0000410E000033
:10019000410E0000410E0000410E0000410E000023
:1001A000410E0000410E0000410E0000410E000013
:1001B0000000000000000000410E0000410E0000A1
:1001C000410E000000000000410E0000410E000042
:1001D000410E0000410E0000410E0000410E0000E3
:1001E000000000000000000000000000000000000F
:1001F00000000000410E0000410E00000000000061
:080200000000000000000000F6
:1002080010B5054C237833B9044B13B10448AFF348
:1002180000800123237010BD0004002000000000AE
:100228006818000008B5034B1BB103490348AFF336
:10023800008008BD000000000404002068180000C9
:10024800A3F5803A704700BF174B002B08BF134B2C
:100258009D46FFF7F5FF00218B460F461348144AC9
:10026800121A01F0B1F90E4B002B00D098470D4B34
:10027800002B00D098470020002104000D000D48F5
:10028800002802D00C48AFF3008001F079F9200073
:10029800290000F08BFD01F05FF900BF00000800A5
:1002A80000000000000000000000042000040020FE
:1002B800200C0020000000000000000070B54FF086
:1002C800FF0C4CF4E06C1CEA11541DBF1CEA1355DA
:1002D80094EA0C0F95EA0C0F00F0DEF82C4481EA42
:1002E800030621EA4C5123EA4C5350EA013518BF62
:1002F80052EA033541F4801143F4801338D0A0FB4F
:1003080002CE4FF00005E1FB02E506F00042E0FBFB
:1003180003E54FF00006E1FB03569CF0000F18BF01
:100328004EF0010EA4F1FF04B6F5007F64F54074A9
:1003380004D25FEA4E0E6D4146EB060642EAC6213C
:1003480041EA55514FEAC52040EA5E504FEACE2EA9
:10035800B4F1FD0C88BFBCF5E06F1ED8BEF1004FAC
:1003680008BF5FEA500E50F1000041EB045170BD28
:1003780006F0004646EA010140EA020081EA03016C
:10038800B4EB5C04C2BFD4EB0C0541EA045170BD68
:1003980041F480114FF0000E013C00F3AB8014F1E2
:1003A800360FDEBF002001F0004170BDC4F100042B
:1003B800203C35DA0C341BDC04F11404C4F12005AC
:1003C80000FA05F320FA04F001FA05F240EA020007
:1003D80001F0004221F0004110EBD37021FA04F63D
:1003E80042EB06015EEA430E08BF20EAD37070BDF7
:1003F800C4F10C04C4F1200500FA04F320FA05F056
:1004080001FA04F240EA020001F0004110EBD37057
:1004180041F100015EEA430E08BF20EAD37070BDC7
:10042800C4F1200500FA05F24EEA020E20FA04F3A0
:1004380001FA05F243EA020321FA04F001F000414F
:1004480021FA04F220EA020000EBD3705EEA430EC0
:1004580008BF20EAD37070BD94F0000F0FD101F0EF
:100468000046400041EB010111F4801F08BF013C28
:10047800F7D041EA060195F0000F18BF704703F066
:100488000046520043EB030313F4801F08BF013DED
:10049800F7D043EA0603704794EA0C0F0CEA1355A9
:1004A80018BF95EA0C0F0CD050EA410618BF52EA63
:1004B8004306D1D181EA030101F000414FF0000069
:1004C80070BD50EA410606BF1046194652EA430677
:1004D80019D094EA0C0F02D150EA013613D195EAEB
:1004E8000C0F05D152EA03361CBF104619460AD133
:1004F80081EA030101F0004141F0FE4141F470013D
:100508004FF0000070BD41F0FE4141F4780170BD2C
:1005180081F0004102E000BF83F0004330B54FEAAC
:1005280041044FEA430594EA050F08BF90EA020F19
:100538001FBF54EA000C55EA020C7FEA645C7FEAAC
:10054800655C00F0E2804FEA5454D4EB5555B8BFCF
:100558006D420CDD2C4480EA020281EA030382EA40
:10056800000083EA010180EA020281EA0303362DD2
:1005780088BF30BD11F0004F4FEA01314FF4801CA5
:100588004CEA113102D0404261EB410113F0004FB7
:100598004FEA03334CEA133302D0524263EB43036E
:1005A80094EA050F00F0A780A4F10104D5F1200E0C
:1005B8000DDB02FA0EFC22FA05F2801841F1000167
:1005C80003FA0EF2801843FA05F359410EE0A5F13B
:1005D80020050EF1200E012A03FA0EFC28BF4CF06C
:1005E800020C43FA05F3C01851EBE37101F0004522
:1005F80007D54FF0000EDCF1000C7EEB00006EEB2F
:100608000101B1F5801F1BD3B1F5001F0CD34908B8
:100618005FEA30004FEA3C0C04F101044FEA44520F
:1006280012F5800F80F09A80BCF1004F08BF5FEA96
:10063800500C50F1000041EB045141EA050130BD76
:100648005FEA4C0C404141EB0101013C28BFB1F588
:10065800801FE9D291F0000F04BF01460020B1FAD3
:1006680081F308BF2033A3F10B03B3F120020CDAA6
:100678000C3208DD02F1140CC2F10C0201FA0CF084
:1006880021FA02F10CE002F11402D8BFC2F1200CE9
:1006980001FA02F120FA0CFCDCBF41EA0C0190409F
:1006A800E41AA2BF01EB0451294330BD6FEA0404E8
:1006B8001F3C1CDA0C340EDC04F11404C4F12002D3
:1006C80020FA04F001FA02F340EA030021FA04F3E5
:1006D80045EA030130BDC4F10C04C4F1200220FA3C
:1006E80002F001FA04F340EA0300294630BD21FA7A
:1006F80004F0294630BD94F0000F83F4801306BF40
:1007080081F480110134013D4EE77FEA645C18BF33
:100718007FEA655C29D094EA050F08BF90EA020FCA
:1007280005D054EA000C04BF1946104630BD91EAC2
:10073800030F1EBF0021002030BD5FEA545C05D1C5
:100748004000494128BF41F0004130BD14F5800404
:100758003CBF01F5801130BD01F0004545F0FE4178
:1007680041F470014FF0000030BD7FEA645C1ABFAD
:10077800194610467FEA655C1CBF0B46024650EAE4
:10078800013406BF52EA033591EA030F41F4002110
:1007980030BD00BF90F0000F04BF0021704730B596
:1007A8004FF4806404F132044FF000054FF000016B
:1007B80050E700BF90F0000F04BF0021704730B52C
:1007C8004FF4806404F1320410F0004548BF404201
:1007D8004FF000013EE700BF42004FEAE2014FEA56
:1007E80031014FEA02701FBF12F07F4393F07F4F31
:1007F80081F06051704732F07F4208BF704793F034
:100808007F4F04BF41F40021704730B54FF4607446
:1008180001F0004521F000411CE700BF50EA010249
:1008280008BF704730B54FF000050AE050EA0102F2
:1008380008BF704730B511F0004502D5404261EB62
:1008480041014FF4806404F132045FEA915C3FF4A3
:10085800D8AE4FF003025FEADC0C18BF03325FEA40
:10086800DC0C18BF033202EBDC02C2F1200300FAF1
:1008780003FC20FA02F001FA03FE40EA0E0021FA16
:1008880002F11444BDE600BF4A0011D212F500126D
:1008980011D20DD56FF47873B3EB62520ED44FEAD0
:1008A800C12343F0004343EA505323FA02F0704750
:1008B8004FF00000704750EA013002D14FF0FF308E
:1008C80070474FF00000704770B502314E0100EBE1
:1008D8004111920034584FF00F0C0CFA02FC6FEAE9
:1008E8000C0E24EA0C0403F00F0595402C433450F9
:1008F800886920EA0C00C3F30324944020438861EC
:10090800486820EA0C00C3F303149440204348606D
:10091800C86920EA0C0CC3F3035090404CEA00006D
:10092800C86113F4702F0FD048690EEA000EC3F3A4
:100938000243934043EA0E034B610B69012000FA1E
:1009480002F21A430A6170BD0B69012000FA02F233
:1009580023EA02020A61F6E7C16070474FF0E0221D
:10096800D2F8883D43F47003C2F8883D70474FF0D1
:10097800E022D2F8343F43F04043C2F8343F704796
:100988000023052B0BD8074A52F83320824201D2A4
:100998000133F6E7034A02EBC303586870470020A7
:1009A800704700BFE417000030B5144CD4F860312C
:1009B8009D0AC3F3892CD4F86021C2F3090ED4F838
:1009C8006411C1F304210131D4F8642102F01F023B
:1009D8000132B0FBF2F2C3F3C43305F47870ACEB28
:1009E800000002FB03F35B0902FB0E3300FB02F27B
:1009F80003EB9220B0FBF1F030BD00BF00E00F40E8
:100A0800C0F307220A4B134403F070425B0123F042
:100A18007E4323F01F031343800000F47F701843C4
:100A280040F000700068003818BF0120704700BF10
:100A380000EA0F402DE9F0470D46C0F3841700F097
:100A48003803102B27D0302B00F08D80382B00F086
:100A58008F80002B40F09180092F00F2DF80704AD0
:100A680052F827806F4AD26F22F01C02022F01DD54
:100A780042F010026B49CA674FF40024694A126DAC
:100A880012F4807F01D1013CF8D1002C00F0C18024
:100A98004FF04C7603E00026DFF89C81052710F420
:100AA800605440F0828013B1102B40F0B280C0F344
:100AB80002695D48FFF764FFDFF868A1CAF8C00063
:100AC800DAF8B020594B134043F00043CAF8B0306D
:100AD800574B53F829302B44013BB3FBF5F5DAF8B3
:100AE800B0303343CAF8B030524907EB4703D82037
:100AF80000FB09F000EB83030B445B68CAF8643120
:100B0800DAF864216B1E42EA0323CAF8643107EB62
:100B1800470700EB8707CB59DAF8602102F4000297
:100B28001343CAF860314046FFF73EFF45082846A0
:100B3800FFF726FFCAF8C000DAF8603113F4000F97
:100B48001ED0DAF8B03043F08043CAF8B0304FF422
:100B58000043002B1CDD334AD2F8682112F0010F44
:100B680016D1013BF5E74FF4001647F2305896E7E7
:100B78004FF480064FF4004891E70026B0468EE710
:100B8800284AD2F8603143F40003C2F86031DEE746
:100B9800C3B3244AD2F8B0301E4346F0104646F09C
:100BA8000106C2F8B0602C462CE02348FFF7E8FEA7
:100BB8001C4BC3F8C000D3F8602122F40002C3F82C
:100BC8006021D3F8B0101D4A0A4042F00042C3F831
:100BD800B0200DB3B8FBF5F4A84500D3013C651C63
:100BE800B8FBF5F52846FFF7CBFE0E4BC3F8C0005F
:100BF800D3F8B02046EA8426164346F00046C3F8E8
:100C0800B0602C46074AD2F8B03023F47003C2F81B
:100C1800B0302046BDE8F0872C46E3E71C46F8E7ED
:100C2800BC17000000E00F4040787D0100FC0FE099
:100C3800B4170000041600000024F400FF0300EFBE
:100C480010B440F201130B4014467AB1026F1343FB
:100C5800036721F4FE5121F01F018904890C4CB16E
:100C6800C3681943C1605DF8044B7047026F22EAFC
:100C78000303EDE7C36823EA0101F3E738B5044647
:100C88004FF080735B6C9B69184898474FF08073EE
:100C98005B6CD3F88C30154898470028F6D04FF095
:100CA80080735B6C9B69124898474FF080735B6C4C
:100CB800D3F88C300D4898470028F6D04FF080754F
:100CC8002B6A9B6E012098472B6A9B6E40F201406D
:100CD80098472B6A5B6D03210648984722464FF4D4
:100CE800E131002000F046FA38BD00BF001800F0DE
:100CF800000800F00080054030B583B04FF08073E5
:100D08005B6ADB6F01211448984710F4806F01D1AA
:100D180003B030BD4FF480610F48FFF71DFE4FF060
:100D28008074636D1D68042300930C4B0C4A0121E9
:100D38001020A847636D5B6910209847236A1B68D9
:100D4800084C22780121084898472378DB43237010
:100D5800064B01221A70DBE70080034020040020C4
:100D68008880034004000020004006401C04002046
:100D780010B54FF08074E36B1B6801210848984751
:100D8800B3EE0E0A00F0AAFB236A1B68054C227812
:100D98000221054898472378DB43237010BD00BF24
:100DA80000000340050000200040064000B583B065
:100DB80012491348FFF73EFE124C2080FFF7CEFD84
:100DC800FFF7D5FD2088FFF759FF00F0EFF80A215B
:100DD800208800F095F900F06BFB0B4B1B78002B7B
:100DE800FBD0094B00221A700849CB8800938B88E6
:100DF8004A880988064800F00BFBEEE7000E270733
:100E0800400200F11E0400201C04002020040020E1
:100E180014180000054AD2F8883043F47003C2F869
:100E28008830034B034A1A60704700BF00ED00E0AA
:100E3800080000200024F400FEE7000008B5074B76
:100E4800074A03E052F8041B43F8041B05498B4288
:100E5800F8D3FFF7DFFFFFF7F7F908BD0000002020
:100E680070180000700000202DE9F0412DED028B74
:100E7800B0EE408A4FF080735B6C9B69444898479A
:100E88004FF080735B6CD3F88C304148984700284A
:100E9800F6D04FF08074236B5B6F00213D48984774
:100EA800636C9B693C4898474FF080735B6CD3F840
:100EB8008C30394898470028F6D04FF08074236A60
:100EC8009B6E36489847236A9B6E35489847236A35
:100ED8005B6C0C2133489847236B5B682D4D0222CD
:100EE800802128469847236B9B684FF4966280219F
:100EF80028469847236B1E68DB6880212846984758
:100F080007EE900AF8EE677A27EE880AFCEEC07AB8
:100F180017EE902A82212846B047236BDF69DB68E9
:100F2800802128469847DFF88080A8FB003676099C
:100F3800236BDB68802128469847A8FB0023C3F36E
:100F48004F13B2B280212846B847A36C5B68984714
:100F5800236B9B6B4FF40062802128469847A36C53
:100F68001B681B209847236B9B6C022128469847D7
:100F7800236BDB6A01220C2128469847236B1B69E7
:100F8800802128469847BDEC028BBDE8F08100BF60
:100F9800004000F000800240050800F00608050047
:100FA800060C050000D005401F85EB5170B582B0D6
:100FB8004FF080735B6C9B69484898474FF080738B
:100FC8005B6CD3F88C30454898470028F6D04FF032
:100FD8008074236ADB6D424D082128469847236AAE
:100FE800DB6D042128469847236ADB6D02212846D9
:100FF8009847236ADB6D012128469847636C9B69F3
:10100800384898474FF080735B6CD3F88C3035487C
:1010180098470028F6D0344C00231A46022120466F
:10102800FFF752FC01231A4602212046FFF74CFC29
:1010380002231A4619462046FFF746FC632303227B
:1010480002212046FFF740FC4FF080756B6ADE698D
:101058000223072219462046B0476B6A5B690221C2
:101068002046984702212046FFF776FC6B6A9B6F63
:10107800022120469847AB6C1B68202098476B6C70
:101088009B691A4898471948FFF7BAFC0028FAD014
:101098004FF08074636D5B689847636D1B6A1448F2
:1010A8009847636DDB6D10209847636D1B6B0F21AC
:1010B80010209847636D9B6B0E4910209847636D0D
:1010C8001D68042300930C4B0C4A01211020A847EB
:1010D800636D5B691020984702B070BD040800F08A
:1010E80000C00540003800F000800340000C00F00C
:1010F800000800200080005D200400208880034054
:10110800F8B507460E464FF080735B6C9B6917482D
:1011180098474FF080735B6CD3F88C30134898472E
:101128000028F6D04FF08075EB6BDB68104C22215D
:1011380020469847EB6B9B6BB7FBF6F2FF212046E6
:101148009847AB6C1B6823209847EB6BDB6C01213D
:10115800204698470122FF212046FFF771FDEB6BDF
:101168005B68FF2120469847F8BD00BF000400F0E7
:10117800000003402DE9F04104460E4615464FF0A5
:1011880080735B6C1B69104A52F820703846984788
:10119800C0B10E4B53F824300D4C23604FF08078CB
:1011A800D8F844309B6938469847D8F814305F69B6
:1011B8006023324629462068B847D8F81430DB69DE
:1011C80020689847BDE8F081581800004C180000C6
:1011D800000C0020F8B505460F46002408E04FF043
:1011E80080735B691B6831780A4A10689847013434
:1011F800BC420CD22E192B5D0A2BF0D14FF0807314
:101208005B691B680D21034A10689847E7E7204689
:10121800F8BD00BF000C0020F0B589B0044601916C
:101228000DE001316518635C252B01D0002BF8D146
:101238002046FFF7CFFF2B78252B06D02C462378A6
:10124800002B00F0DC800021ECE7681C4FF0200C3C
:101258000025044614F8012BA2F12503532B00F2B4
:10126800C980DFE803F0C3C7C7C7C7C7C7C7C7C7B1
:10127800C72A2A2A2A2A2A2A2A2A2AC7C7C7C7C718
:10128800C7C7C7C7C7C7C7C7C7C7C7C7C7C7C7C7E6
:10129800C7C7C7C7C7C7C7C7C773C7C7C7C7C7C72A
:1012A800C7C7C7C73842C7C7C7C742C7C7C7C7C75F
:1012B800C773C7C751C76BC7C773302A07D005EBB9
:1012C800850502EB4502A2F130052046C1E7002D55
:1012D800F5D19446F3E7019B1A1D01921B68079309
:1012E800012107A8FFF776FFA9E7019B1A1D0192C4
:1012F8001B680793002B03DB00270A2201232FE03A
:101308005B4207930127F8E7019B1A1D01921868B1
:10131800002600E00136835D002BFBD13146FFF744
:1013280059FFAE428BD2AD1B04E001213548FFF7CF
:1013380051FF35466E1E002DF7D180E7019B1A1D1F
:1013480001921B68079300270A22D7E7019B1A1D01
:1013580001921B68079300271022CFE7013D0B4637
:1013680002FB03F1079EB14203D8B1FBF2F09842A9
:10137800F4D007B1013D57B1BCF1300F01D00021C5
:1013880006E02D218DF80C103946002700E039467B
:10139800A81E0D2808D91FB301F1200068442D2587
:1013A80000F8145C01311BE0013D06E001F120006A
:1013B800684400F814CC013D0131002DF6D1EAE76C
:1013C800B6FBF3F0B0FBF2F502FB15000E4D455DE0
:1013D80001F12000684400F8145CB3FBF2F301311A
:1013E800002BEDD103A8FFF7F5FE28E70121FFF751
:1013F800F1FE24E705210548FFF7ECFE1FE709B0D9
:10140800F0BD00BF2C180000301800004418000080
:101418000FB400B583B004A951F8040B0191FFF78C
:10142800FBFE03B05DF804EB04B070470180428016
:101438008380BDF80030C38047F6FF7343814FF4C3
:101448000043038100238381C381038270470181A4
:101458004281704710B50246038813FB01F3848963
:1014680014FA83F39BB2C381B0F80AE0734504D839
:101478000089834202D3184600E07046C31AB2F8C6
:1014880002C01CFB01F1B2F806C01CFB03F39BB2BF
:1014980013FA81F314FA83F39BB293819E4502D227
:1014A800A2F80CE010BD11898B42FBD29181F9E7BB
:1014B80010B582B0084C002100910B460A46204620
:1014C800FFF7B4FF40F6CC4240F233312046FFF735
:1014D800BEFF02B010BD00BF0C0C002038B5DFED18
:1014E800177A20EE270ABCEEC00A10EE103A9CB21A
:1014F800134B5888134D2B88C3EBC3031844FFF7CD
:1015080059F900224FF07F53FEF7D8FEFFF7BCF9D8
:1015180081B229800C4B1980611A89B20B4B198052
:101528000B48FFF797FF0B4B1880030B00EE103AA0
:10153800B8EEC00AFFF798FC38BD00BF4636C04277
:10154800200400201E0C0020040C0020060C0020A3
:101558000C0C0020080C002008B5074B044613B1FA
:101568000021AFF30080054B1868836A03B19847E0
:10157800204600F031F800BF0000000064180000A9
:1015880070B50D4D0D4C641BA4100026A64209D160
:101598000B4D0C4C00F024F8641BA4100026A64246
:1015A80005D170BD55F8043B98470136EEE755F86C
:1015B800043B98470136F2E70000000000000000F5
:1015C800E4150000E815000002440346934200D1E8
:1015D800704703F8011BF9E7FEE700BF2D02000082
:1015E800F8B500BFF8BC08BC9E467047F8B500BF08
:0C15F80009020000F8BC08BC9E467047C9
:10160400400000000000000000010000A0000000F5
:10161400020000000001000028000000000000009B
:101624000001000020000000000000000001000094
:10163400500000000200000000010000140000003F
:101644000000000000010000A000000008000000ED
:101654000001000010000000000000000001000074
:10166400280000000200000000010000400000000B
:101674000400000000010000000000000000000061
:101684000000000000000000000000000000000056
:101694000000000000000000000000000000000046
:1016A4000000000000000000000000000000000036
:1016B4000000000000000000000000000000000026
:1016C4000000000000000000000000000000000016
:1016D40000000000000000006000000000000000A6
:1016E40000010000500000000000000000010000A4
:1016F4003C00000000000000000100003000000079
:1017040000000000000100002800000000000000AC
:10171400000100001E0000000000000000010000A5
:10172400500000000200000000010000180000004A
:101734000000000000010000140000000000000090
:10174400000100006000000004000000000100002F
:101754000000000000000000000000000000000085
:101764000000000000000000000000000000000075
:101774000000000000000000000000000000000065
:101784000000000000000000000000000000000055
:101794000000000000000000000000000000000045
:1017A4000000000000000000000000000000000035
:1017B40000688909001C4E0E404B4C00808D5B0074
:1017C40000127A0080969800001BB7000024F400F1
:1017D40080A81201002D310100366E0140787D0190
:1017E4000024F40030003000005A6202910091009D
:1017F40000879303D200D20000B4C4041301130180
:1018040000E1F50554015401000E270795019501E7
:1018140044617461203D20253464202534642025EE
:101824003464202534640D0020000000303132334C
:101834003435363738396162636465660000000008
:101844004552524F5200000000C0004000D00040FA
:1018540000E00040001800F0011800F0021800F049
:041864001000002050
:08186800E0E9FF7F0100000030
:1018700000000000010100000024F400100000201E
:101880000000000000000000000000000000000058
:101890000000000000000000000000000000000048
:1018A0000000000000000000000000000000000038
:1018B0000000000000000000000000000000000028
:1018C0000000000000000000000000000000000018
:1018D0000000000000000000000000000000000008
:0400000300000208EF
:00000001FF
