:1000000000000420C5060000C1060000C106000073
:10001000C1060000C1060000C1060000000000008B
:10002000000000000000000000000000C106000009
:10003000C106000000000000C1060000C10600006B
:10004000C1060000C1060000C1060000C106000094
:10005000C1060000C1060000C1060000C106000084
:10006000C1060000C1060000C1060000C106000074
:10007000C1060000C1060000C1060000C106000064
:10008000C1060000C1060000C10600008D09000085
:10009000C1060000C1060000C1060000C106000044
:1000A000C1060000C1060000C1060000C106000034
:1000B000C1060000C1060000C1060000C106000024
:1000C000C1060000C1060000C1060000C106000014
:1000D000C1060000C1060000C1060000C106000004
:1000E000C1060000C1060000C1060000C1060000F4
:1000F000C1060000C1060000C1060000C1060000E4
:10010000C1060000C1060000C1060000C1060000D3
:10011000C1060000C1060000C1060000C1060000C3
:10012000C1060000C1060000C1060000C1060000B3
:10013000C1060000C1060000C1060000C1060000A3
:10014000C1060000C1060000C1060000C106000093
:100150000000000000000000C1060000C106000011
:10016000C1060000C106000000000000C10600003A
:10017000C1060000C1060000C1060000C106000063
:10018000C1060000C1060000C1060000C106000053
:10019000C1060000C1060000C1060000C106000043
:1001A000C1060000C1060000C1060000C106000033
:1001B0000000000000000000C1060000C1060000B1
:1001C000C106000000000000C1060000C1060000DA
:1001D000C1060000C1060000C1060000C106000003
:1001E000000000000000000000000000000000000F
:1001F00000000000C1060000C10600000000000071
:080200000000000000000000F6
:1002080010B5054C237833B9044B13B10448AFF348
:1002180000800123237010BD6C0000200000000046
:10022800B40D000008B5034B1BB103490348AFF3F5
:10023800008008BD0000000070000020B40D000020
:10024800A3F5803A704700BF174B002B08BF134B2C
:100258009D46FFF7F5FF00218B460F461348144AC9
:10026800121A00F073FC0E4B002B00D098470D4B70
:10027800002B00D098470020002104000D000D48F5
:10028800002802D00C48AFF3008000F03BFC2000AF
:10029800290000F0E1F900F021FC00BF000008008F
:1002A8000000000000000000000004206C00002096
:1002B800C0000020000000000000000070B50231FE
:1002C8004E0100EB4111920034584FF00F0C0CFA1C
:1002D80002FC6FEA0C0E24EA0C0403F00F059540AB
:1002E8002C433450886920EA0C00C3F3032494405B
:1002F80020438861486820EA0C00C3F30314944043
:1003080020434860C86920EA0C0CC3F303509040AE
:100318004CEA0000C86113F4702F0FD048690EEA48
:10032800000EC3F30243934043EA0E034B610B698B
:10033800012000FA02F21A430A6170BD0B6901201C
:1003480000FA02F223EA02020A61F6E7C160704786
:100358000023052B0BD8074A52F83320824201D2DA
:100368000133F6E7034A02EBC303586870470020DD
:10037800704700BF680D000030B5144CD4F86031E8
:100388009D0AC3F3892CD4F86021C2F3090ED4F86E
:100398006411C1F304210131D4F8642102F01F0271
:1003A8000132B0FBF2F2C3F3C43305F47870ACEB5E
:1003B800000002FB03F35B0902FB0E3300FB02F2B1
:1003C80003EB9220B0FBF1F030BD00BF00E00F401E
:1003D8002DE9F0470D46C0F3841700F03803102BC1
:1003E80027D0302B00F08D80382B00F08F80002B29
:1003F80040F09180092F00F2DF80704A52F8278080
:100408006F4AD26F22F01C02022F01DD42F0100267
:100418006B49CA674FF40024694A126D12F4807F51
:1004280001D1013CF8D1002C00F0C1804FF04C768E
:1004380003E00026DFF89C81052710F4605440F0A3
:10044800828013B1102B40F0B280C0F302695D487E
:10045800FFF77EFFDFF868A1CAF8C000DAF8B0201D
:10046800594B134043F00043CAF8B030574B53F888
:1004780029302B44013BB3FBF5F5DAF8B0303343B0
:10048800CAF8B030524907EB4703D82000FB09F0FF
:1004980000EB83030B445B68CAF86431DAF8642123
:1004A8006B1E42EA0323CAF8643107EB470700EBE7
:1004B8008707CB59DAF8602102F400021343CAF81F
:1004C80060314046FFF758FF45082846FFF740FFD0
:1004D800CAF8C000DAF8603113F4000F1ED0DAF859
:1004E800B03043F08043CAF8B0304FF40043002BDB
:1004F8001CDD334AD2F8682112F0010F16D1013BF6
:10050800F5E74FF4001647F2305896E74FF48006A7
:100518004FF4004891E70026B0468EE7284AD2F803
:10052800603143F40003C2F86031DEE7C3B3244A04
:10053800D2F8B0301E4346F0104646F00106C2F825
:10054800B0602C462CE02348FFF702FF1C4BC3F891
:10055800C000D3F8602122F40002C3F86021D3F868
:10056800B0101D4A0A4042F00042C3F8B0200DB353
:10057800B8FBF5F4A84500D3013C651CB8FBF5F5BC
:100588002846FFF7E5FE0E4BC3F8C000D3F8B020AD
:1005980046EA8426164346F00046C3F8B0602C4667
:1005A800074AD2F8B03023F47003C2F8B0302046BE
:1005B800BDE8F0872C46E3E71C46F8E7400D00004D
:1005C80000E00F4040787D0100FC0FE0380D00008E
:1005D800880B00000024F400FF0300EF38B5044640
:1005E8004FF080735B6C9B69184898474FF0807395
:1005F8005B6CD3F88C30154898470028F6D04FF03C
:1006080080735B6C9B69124898474FF080735B6CF2
:10061800D3F88C300D4898470028F6D04FF08075F5
:100628002B6A9B6E012098472B6A9B6E40F2014013
:1006380098472B6A5B6D03210648984722464FF47A
:10064800E131002000F0AEF938BD00BF001800F01D
:10065800000800F00080054008B50A490A48FFF77D
:10066800B7FE0A4C2060FFF7B9FF00F0DFF82068FA
:1006780000F04EF99FED060AF0EE400A00F0F4F99A
:10068800FEE700BF000E2707400200F188000020A7
:10069800CDCCCC3D054AD2F8883043F47003C2F87B
:1006A8008830034B034A1A60704700BF00ED00E032
:1006B800040000200024F400FEE7000008B5074B02
:1006C800074A03E052F8041B43F8041B05498B4210
:1006D800F8D3FFF7DFFFFFF7B7FD08BD00000020E4
:1006E800BC0D00006C0000202DE9F0412DED028BBF
:1006F800B0EE408A4FF080735B6C9B694448984722
:100708004FF080735B6CD3F88C30414898470028D1
:10071800F6D04FF08074236B5B6F00213D489847FB
:10072800636C9B693C4898474FF080735B6CD3F8C7
:100738008C30394898470028F6D04FF08074236AE7
:100748009B6E36489847236A9B6E35489847236ABC
:100758005B6C0C2133489847236B5B682D4D022254
:10076800802128469847236B9B684FF49662802126
:1007780028469847236B1E68DB68802128469847DF
:1007880007EE900AF8EE677A27EE880AFCEEC07A40
:1007980017EE902A82212846B047236BDF69DB6871
:1007A800802128469847DFF88080A8FB0036760924
:1007B800236BDB68802128469847A8FB0023C3F3F6
:1007C8004F13B2B280212846B847A36C5B6898479C
:1007D800236B9B6B4FF40062802128469847A36CDB
:1007E8001B681B209847236B9B6C0221284698475F
:1007F800236BDB6A01220C2128469847236B1B696F
:10080800802128469847BDEC028BBDE8F08100BFE7
:10081800004000F000800240050800F006080500CE
:10082800060C050000D005401F85EB5170B54FF050
:1008380080735B6C9B69324898474FF080735B6CA0
:10084800D3F88C302E4898470028F6D04FF08074A3
:10085800236ADB6D2B4D082128469847236ADB6DF8
:10086800042128469847236ADB6D022128469847C9
:10087800236ADB6D012128469847636C9B692248EF
:1008880098474FF080735B6CD3F88C301E489847BC
:100898000028F6D01D4C00231A4602212046FFF7F7
:1008A8000DFD01231A4602212046FFF707FD02230A
:1008B8001A4619462046FFF701FD63230322022149
:1008C8002046FFF7FBFC4FF080756B6ADE69022358
:1008D800072219462046B0476B6A5B690221204609
:1008E800984702212046FFF731FD6B6A9B6F022172
:1008F80020469847AB6C1B682020984770BD00BF06
:10090800040800F000C00540003800F000800340F3
:1009180070B505464FF080735B6C9B691648984725
:100928004FF080735B6CD3F88C30134898470028DD
:10093800F6D04FF08074A36C5B689847E36BDB6874
:100948000E4E222130469847E36B9B6B0C4AA2FB64
:1009580005129209FF2130469847A36C1B68232093
:100968009847E36BDB6C012130469847E36B5B6883
:10097800FF213046984770BD000400F00000034096
:10098800D34D621010B54FF08073DB6B5B6D0121A6
:100998000020984784B201E000F06EF8002CFBD0EC
:1009A80010BD00002DE9F04104460E4615464FF0F3
:1009B80080735B6C1B69104A52F820703846984760
:1009C800C0B10E4B53F824300D4C23604FF08078A3
:1009D800D8F844309B6938469847D8F814305F698E
:1009E8006023324629462068B847D8F81430DB69B6
:1009F80020689847BDE8F081A40D0000980D00001C
:100A08009C000020154BD3ED037A37EEA77A30EE21
:100A1800477AD3ED046A37EE267AC3ED047A9A68EA
:100A2800DA6083ED020AD3ED007A27EE800A30EE11
:100A3800070ADFED0B7AB4EEE70AF1EE10FA07D4F5
:100A4800DFED087AB4EEE70AF1EE10FA03DC70473E
:100A58009FED030A70479FED030A7047AC00002022
:100A6800CDCC4C3ECDCC4C3F024B83ED000AC3EDC0
:100A7800010A7047AC00002008B5124B5B8807EEEE
:100A8800903AF8EEE77A9FED107A87EE870ADFED65
:100A98000F7A30EE270AF5EE007A20EE270A0C4B83
:100AA80083ED000AF2EE007A30EE670A094B83ED17
:100AB800000AFFF7A7FF084B83ED000AFFF714FEB3
:100AC80008BD00BF8C0000206666C0420000000020
:100AD800A0000020A4000020A800002008B5074BB3
:100AE800044613B10021AFF30080054B1868836AF0
:100AF80003B19847204600F031F800BF000000001D
:100B0800B00D000070B50D4D0D4C641BA4100026EF
:100B1800A64209D10B4D0C4C00F024F8641BA4101C
:100B28000026A64205D170BD55F8043B984701360A
:100B3800EEE755F8043B98470136F2E7000000005D
:100B480000000000680B00006C0B00000244034624
:100B5800934200D1704703F8011BF9E7FEE700BF95
:100B68002D020000F8B500BFF8BC08BC9E467047CF
:100B7800F8B500BF09020000F8BC08BC9E467047E3
:100B8800400000000000000000010000A00000007C
:100B98000200000000010000280000000000000022
:100BA800000100002000000000000000000100001B
:100BB80050000000020000000001000014000000C6
:100BC8000000000000010000A00000000800000074
:100BD80000010000100000000000000000010000FB
:100BE8002800000002000000000100004000000092
:100BF80004000000000100000000000000000000E8
:100C080000000000000000000000000000000000DC
:100C180000000000000000000000000000000000CC
:100C280000000000000000000000000000000000BC
:100C380000000000000000000000000000000000AC
:100C4800000000000000000000000000000000009C
:100C5800000000000000000060000000000000002C
:100C6800000100005000000000000000000100002A
:100C78003C000000000000000001000030000000FF
:100C88000000000000010000280000000000000033
:100C9800000100001E00000000000000000100002C
:100CA80050000000020000000001000018000000D1
:100CB8000000000000010000140000000000000017
:100CC80000010000600000000400000000010000B6
:100CD800000000000000000000000000000000000C
:100CE80000000000000000000000000000000000FC
:100CF80000000000000000000000000000000000EC
:100D080000000000000000000000000000000000DB
:100D180000000000000000000000000000000000CB
:100D280000000000000000000000000000000000BB
:100D380000688909001C4E0E404B4C00808D5B00FA
:100D480000127A0080969800001BB7000024F40077
:100D580080A81201002D310100366E0140787D0116
:100D68000024F40030003000005A62029100910023
:100D780000879303D200D20000B4C4041301130106
:100D880000E1F50554015401000E2707950195016E
:100D980000C0004000D0004000E00040001800F013
:0C0DA800011800F0021800F00C00002000
:080DB40094F4FF7F0100000030
:100DBC00000000000024F4000C00002000000000E3
:100DCC000000000000000000000000000000000017
:100DDC000000000000000000000000000000000007
:100DEC0000000000000000000000000000000000F7
:100DFC0000000000000000000000000000000000E7
:100E0C0000000000000000000000000000000000D6
:0C0E1C00000000000000000000000000CA
:0400000300000208EF
:00000001FF
